{
  "_format": "hh-sol-artifact-1",
  "contractName": "PositionManager",
  "sourceName": "contracts/core/PositionManager.sol",
  "abi": [
    {
      "inputs": [
        {
          "internalType": "address",
          "name": "_vault",
          "type": "address"
        },
        {
          "internalType": "address",
          "name": "_router",
          "type": "address"
        },
        {
          "internalType": "address",
          "name": "_shortsTracker",
          "type": "address"
        },
        {
          "internalType": "address",
          "name": "_weth",
          "type": "address"
        },
        {
          "internalType": "uint256",
          "name": "_depositFee",
          "type": "uint256"
        },
        {
          "internalType": "address",
          "name": "_orderBook",
          "type": "address"
        }
      ],
      "stateMutability": "nonpayable",
      "type": "constructor"
    },
    {
      "anonymous": false,
      "inputs": [
        {
          "indexed": false,
          "internalType": "address",
          "name": "account",
          "type": "address"
        },
        {
          "indexed": false,
          "internalType": "uint256",
          "name": "sizeDelta",
          "type": "uint256"
        },
        {
          "indexed": false,
          "internalType": "uint256",
          "name": "marginFeeBasisPoints",
          "type": "uint256"
        },
        {
          "indexed": false,
          "internalType": "bytes32",
          "name": "referralCode",
          "type": "bytes32"
        },
        {
          "indexed": false,
          "internalType": "address",
          "name": "referrer",
          "type": "address"
        }
      ],
      "name": "DecreasePositionReferral",
      "type": "event"
    },
    {
      "anonymous": false,
      "inputs": [
        {
          "indexed": false,
          "internalType": "address",
          "name": "account",
          "type": "address"
        },
        {
          "indexed": false,
          "internalType": "uint256",
          "name": "sizeDelta",
          "type": "uint256"
        },
        {
          "indexed": false,
          "internalType": "uint256",
          "name": "marginFeeBasisPoints",
          "type": "uint256"
        },
        {
          "indexed": false,
          "internalType": "bytes32",
          "name": "referralCode",
          "type": "bytes32"
        },
        {
          "indexed": false,
          "internalType": "address",
          "name": "referrer",
          "type": "address"
        }
      ],
      "name": "IncreasePositionReferral",
      "type": "event"
    },
    {
      "anonymous": false,
      "inputs": [
        {
          "indexed": false,
          "internalType": "address",
          "name": "admin",
          "type": "address"
        }
      ],
      "name": "SetAdmin",
      "type": "event"
    },
    {
      "anonymous": false,
      "inputs": [
        {
          "indexed": false,
          "internalType": "uint256",
          "name": "depositFee",
          "type": "uint256"
        }
      ],
      "name": "SetDepositFee",
      "type": "event"
    },
    {
      "anonymous": false,
      "inputs": [
        {
          "indexed": false,
          "internalType": "uint256",
          "name": "ethTransferGasLimit",
          "type": "uint256"
        }
      ],
      "name": "SetEthTransferGasLimit",
      "type": "event"
    },
    {
      "anonymous": false,
      "inputs": [
        {
          "indexed": false,
          "internalType": "bool",
          "name": "inLegacyMode",
          "type": "bool"
        }
      ],
      "name": "SetInLegacyMode",
      "type": "event"
    },
    {
      "anonymous": false,
      "inputs": [
        {
          "indexed": false,
          "internalType": "uint256",
          "name": "increasePositionBufferBps",
          "type": "uint256"
        }
      ],
      "name": "SetIncreasePositionBufferBps",
      "type": "event"
    },
    {
      "anonymous": false,
      "inputs": [
        {
          "indexed": true,
          "internalType": "address",
          "name": "account",
          "type": "address"
        },
        {
          "indexed": false,
          "internalType": "bool",
          "name": "isActive",
          "type": "bool"
        }
      ],
      "name": "SetLiquidator",
      "type": "event"
    },
    {
      "anonymous": false,
      "inputs": [
        {
          "indexed": false,
          "internalType": "address[]",
          "name": "tokens",
          "type": "address[]"
        },
        {
          "indexed": false,
          "internalType": "uint256[]",
          "name": "longSizes",
          "type": "uint256[]"
        },
        {
          "indexed": false,
          "internalType": "uint256[]",
          "name": "shortSizes",
          "type": "uint256[]"
        }
      ],
      "name": "SetMaxGlobalSizes",
      "type": "event"
    },
    {
      "anonymous": false,
      "inputs": [
        {
          "indexed": true,
          "internalType": "address",
          "name": "account",
          "type": "address"
        },
        {
          "indexed": false,
          "internalType": "bool",
          "name": "isActive",
          "type": "bool"
        }
      ],
      "name": "SetOrderKeeper",
      "type": "event"
    },
    {
      "anonymous": false,
      "inputs": [
        {
          "indexed": false,
          "internalType": "address",
          "name": "account",
          "type": "address"
        },
        {
          "indexed": false,
          "internalType": "bool",
          "name": "isActive",
          "type": "bool"
        }
      ],
      "name": "SetPartner",
      "type": "event"
    },
    {
      "anonymous": false,
      "inputs": [
        {
          "indexed": false,
          "internalType": "address",
          "name": "referralStorage",
          "type": "address"
        }
      ],
      "name": "SetReferralStorage",
      "type": "event"
    },
    {
      "anonymous": false,
      "inputs": [
        {
          "indexed": false,
          "internalType": "bool",
          "name": "shouldValidateIncreaseOrder",
          "type": "bool"
        }
      ],
      "name": "SetShouldValidateIncreaseOrder",
      "type": "event"
    },
    {
      "anonymous": false,
      "inputs": [
        {
          "indexed": false,
          "internalType": "address",
          "name": "token",
          "type": "address"
        },
        {
          "indexed": false,
          "internalType": "address",
          "name": "receiver",
          "type": "address"
        },
        {
          "indexed": false,
          "internalType": "uint256",
          "name": "amount",
          "type": "uint256"
        }
      ],
      "name": "WithdrawFees",
      "type": "event"
    },
    {
      "inputs": [],
      "name": "BASIS_POINTS_DIVISOR",
      "outputs": [
        {
          "internalType": "uint256",
          "name": "",
          "type": "uint256"
        }
      ],
      "stateMutability": "view",
      "type": "function"
    },
    {
      "inputs": [],
      "name": "admin",
      "outputs": [
        {
          "internalType": "address",
          "name": "",
          "type": "address"
        }
      ],
      "stateMutability": "view",
      "type": "function"
    },
    {
      "inputs": [
        {
          "internalType": "address",
          "name": "_token",
          "type": "address"
        },
        {
          "internalType": "address",
          "name": "_spender",
          "type": "address"
        },
        {
          "internalType": "uint256",
          "name": "_amount",
          "type": "uint256"
        }
      ],
      "name": "approve",
      "outputs": [],
      "stateMutability": "nonpayable",
      "type": "function"
    },
    {
      "inputs": [
        {
          "internalType": "address",
          "name": "_collateralToken",
          "type": "address"
        },
        {
          "internalType": "address",
          "name": "_indexToken",
          "type": "address"
        },
        {
          "internalType": "uint256",
          "name": "_collateralDelta",
          "type": "uint256"
        },
        {
          "internalType": "uint256",
          "name": "_sizeDelta",
          "type": "uint256"
        },
        {
          "internalType": "bool",
          "name": "_isLong",
          "type": "bool"
        },
        {
          "internalType": "address",
          "name": "_receiver",
          "type": "address"
        },
        {
          "internalType": "uint256",
          "name": "_price",
          "type": "uint256"
        }
      ],
      "name": "decreasePosition",
      "outputs": [],
      "stateMutability": "nonpayable",
      "type": "function"
    },
    {
      "inputs": [
        {
          "internalType": "address[]",
          "name": "_path",
          "type": "address[]"
        },
        {
          "internalType": "address",
          "name": "_indexToken",
          "type": "address"
        },
        {
          "internalType": "uint256",
          "name": "_collateralDelta",
          "type": "uint256"
        },
        {
          "internalType": "uint256",
          "name": "_sizeDelta",
          "type": "uint256"
        },
        {
          "internalType": "bool",
          "name": "_isLong",
          "type": "bool"
        },
        {
          "internalType": "address",
          "name": "_receiver",
          "type": "address"
        },
        {
          "internalType": "uint256",
          "name": "_price",
          "type": "uint256"
        },
        {
          "internalType": "uint256",
          "name": "_minOut",
          "type": "uint256"
        }
      ],
      "name": "decreasePositionAndSwap",
      "outputs": [],
      "stateMutability": "nonpayable",
      "type": "function"
    },
    {
      "inputs": [
        {
          "internalType": "address[]",
          "name": "_path",
          "type": "address[]"
        },
        {
          "internalType": "address",
          "name": "_indexToken",
          "type": "address"
        },
        {
          "internalType": "uint256",
          "name": "_collateralDelta",
          "type": "uint256"
        },
        {
          "internalType": "uint256",
          "name": "_sizeDelta",
          "type": "uint256"
        },
        {
          "internalType": "bool",
          "name": "_isLong",
          "type": "bool"
        },
        {
          "internalType": "address payable",
          "name": "_receiver",
          "type": "address"
        },
        {
          "internalType": "uint256",
          "name": "_price",
          "type": "uint256"
        },
        {
          "internalType": "uint256",
          "name": "_minOut",
          "type": "uint256"
        }
      ],
      "name": "decreasePositionAndSwapETH",
      "outputs": [],
      "stateMutability": "nonpayable",
      "type": "function"
    },
    {
      "inputs": [
        {
          "internalType": "address",
          "name": "_collateralToken",
          "type": "address"
        },
        {
          "internalType": "address",
          "name": "_indexToken",
          "type": "address"
        },
        {
          "internalType": "uint256",
          "name": "_collateralDelta",
          "type": "uint256"
        },
        {
          "internalType": "uint256",
          "name": "_sizeDelta",
          "type": "uint256"
        },
        {
          "internalType": "bool",
          "name": "_isLong",
          "type": "bool"
        },
        {
          "internalType": "address payable",
          "name": "_receiver",
          "type": "address"
        },
        {
          "internalType": "uint256",
          "name": "_price",
          "type": "uint256"
        }
      ],
      "name": "decreasePositionETH",
      "outputs": [],
      "stateMutability": "nonpayable",
      "type": "function"
    },
    {
      "inputs": [],
      "name": "depositFee",
      "outputs": [
        {
          "internalType": "uint256",
          "name": "",
          "type": "uint256"
        }
      ],
      "stateMutability": "view",
      "type": "function"
    },
    {
      "inputs": [],
      "name": "ethTransferGasLimit",
      "outputs": [
        {
          "internalType": "uint256",
          "name": "",
          "type": "uint256"
        }
      ],
      "stateMutability": "view",
      "type": "function"
    },
    {
      "inputs": [
        {
          "internalType": "address",
          "name": "_account",
          "type": "address"
        },
        {
          "internalType": "uint256",
          "name": "_orderIndex",
          "type": "uint256"
        },
        {
          "internalType": "address payable",
          "name": "_feeReceiver",
          "type": "address"
        }
      ],
      "name": "executeDecreaseOrder",
      "outputs": [],
      "stateMutability": "nonpayable",
      "type": "function"
    },
    {
      "inputs": [
        {
          "internalType": "address",
          "name": "_account",
          "type": "address"
        },
        {
          "internalType": "uint256",
          "name": "_orderIndex",
          "type": "uint256"
        },
        {
          "internalType": "address payable",
          "name": "_feeReceiver",
          "type": "address"
        }
      ],
      "name": "executeIncreaseOrder",
      "outputs": [],
      "stateMutability": "nonpayable",
      "type": "function"
    },
    {
      "inputs": [
        {
          "internalType": "address",
          "name": "_account",
          "type": "address"
        },
        {
          "internalType": "uint256",
          "name": "_orderIndex",
          "type": "uint256"
        },
        {
          "internalType": "address payable",
          "name": "_feeReceiver",
          "type": "address"
        }
      ],
      "name": "executeSwapOrder",
      "outputs": [],
      "stateMutability": "nonpayable",
      "type": "function"
    },
    {
      "inputs": [
        {
          "internalType": "address",
          "name": "",
          "type": "address"
        }
      ],
      "name": "feeReserves",
      "outputs": [
        {
          "internalType": "uint256",
          "name": "",
          "type": "uint256"
        }
      ],
      "stateMutability": "view",
      "type": "function"
    },
    {
      "inputs": [],
      "name": "gov",
      "outputs": [
        {
          "internalType": "address",
          "name": "",
          "type": "address"
        }
      ],
      "stateMutability": "view",
      "type": "function"
    },
    {
      "inputs": [],
      "name": "inLegacyMode",
      "outputs": [
        {
          "internalType": "bool",
          "name": "",
          "type": "bool"
        }
      ],
      "stateMutability": "view",
      "type": "function"
    },
    {
      "inputs": [
        {
          "internalType": "address[]",
          "name": "_path",
          "type": "address[]"
        },
        {
          "internalType": "address",
          "name": "_indexToken",
          "type": "address"
        },
        {
          "internalType": "uint256",
          "name": "_amountIn",
          "type": "uint256"
        },
        {
          "internalType": "uint256",
          "name": "_minOut",
          "type": "uint256"
        },
        {
          "internalType": "uint256",
          "name": "_sizeDelta",
          "type": "uint256"
        },
        {
          "internalType": "bool",
          "name": "_isLong",
          "type": "bool"
        },
        {
          "internalType": "uint256",
          "name": "_price",
          "type": "uint256"
        }
      ],
      "name": "increasePosition",
      "outputs": [],
      "stateMutability": "nonpayable",
      "type": "function"
    },
    {
      "inputs": [],
      "name": "increasePositionBufferBps",
      "outputs": [
        {
          "internalType": "uint256",
          "name": "",
          "type": "uint256"
        }
      ],
      "stateMutability": "view",
      "type": "function"
    },
    {
      "inputs": [
        {
          "internalType": "address[]",
          "name": "_path",
          "type": "address[]"
        },
        {
          "internalType": "address",
          "name": "_indexToken",
          "type": "address"
        },
        {
          "internalType": "uint256",
          "name": "_minOut",
          "type": "uint256"
        },
        {
          "internalType": "uint256",
          "name": "_sizeDelta",
          "type": "uint256"
        },
        {
          "internalType": "bool",
          "name": "_isLong",
          "type": "bool"
        },
        {
          "internalType": "uint256",
          "name": "_price",
          "type": "uint256"
        }
      ],
      "name": "increasePositionETH",
      "outputs": [],
      "stateMutability": "payable",
      "type": "function"
    },
    {
      "inputs": [
        {
          "internalType": "address",
          "name": "",
          "type": "address"
        }
      ],
      "name": "isLiquidator",
      "outputs": [
        {
          "internalType": "bool",
          "name": "",
          "type": "bool"
        }
      ],
      "stateMutability": "view",
      "type": "function"
    },
    {
      "inputs": [
        {
          "internalType": "address",
          "name": "",
          "type": "address"
        }
      ],
      "name": "isOrderKeeper",
      "outputs": [
        {
          "internalType": "bool",
          "name": "",
          "type": "bool"
        }
      ],
      "stateMutability": "view",
      "type": "function"
    },
    {
      "inputs": [
        {
          "internalType": "address",
          "name": "",
          "type": "address"
        }
      ],
      "name": "isPartner",
      "outputs": [
        {
          "internalType": "bool",
          "name": "",
          "type": "bool"
        }
      ],
      "stateMutability": "view",
      "type": "function"
    },
    {
      "inputs": [
        {
          "internalType": "address",
          "name": "_account",
          "type": "address"
        },
        {
          "internalType": "address",
          "name": "_collateralToken",
          "type": "address"
        },
        {
          "internalType": "address",
          "name": "_indexToken",
          "type": "address"
        },
        {
          "internalType": "bool",
          "name": "_isLong",
          "type": "bool"
        },
        {
          "internalType": "address",
          "name": "_feeReceiver",
          "type": "address"
        }
      ],
      "name": "liquidatePosition",
      "outputs": [],
      "stateMutability": "nonpayable",
      "type": "function"
    },
    {
      "inputs": [
        {
          "internalType": "address",
          "name": "",
          "type": "address"
        }
      ],
      "name": "maxGlobalLongSizes",
      "outputs": [
        {
          "internalType": "uint256",
          "name": "",
          "type": "uint256"
        }
      ],
      "stateMutability": "view",
      "type": "function"
    },
    {
      "inputs": [
        {
          "internalType": "address",
          "name": "",
          "type": "address"
        }
      ],
      "name": "maxGlobalShortSizes",
      "outputs": [
        {
          "internalType": "uint256",
          "name": "",
          "type": "uint256"
        }
      ],
      "stateMutability": "view",
      "type": "function"
    },
    {
      "inputs": [],
      "name": "orderBook",
      "outputs": [
        {
          "internalType": "address",
          "name": "",
          "type": "address"
        }
      ],
      "stateMutability": "view",
      "type": "function"
    },
    {
      "inputs": [],
      "name": "referralStorage",
      "outputs": [
        {
          "internalType": "address",
          "name": "",
          "type": "address"
        }
      ],
      "stateMutability": "view",
      "type": "function"
    },
    {
      "inputs": [],
      "name": "router",
      "outputs": [
        {
          "internalType": "address",
          "name": "",
          "type": "address"
        }
      ],
      "stateMutability": "view",
      "type": "function"
    },
    {
      "inputs": [
        {
          "internalType": "address payable",
          "name": "_receiver",
          "type": "address"
        },
        {
          "internalType": "uint256",
          "name": "_amount",
          "type": "uint256"
        }
      ],
      "name": "sendValue",
      "outputs": [],
      "stateMutability": "nonpayable",
      "type": "function"
    },
    {
      "inputs": [
        {
          "internalType": "address",
          "name": "_admin",
          "type": "address"
        }
      ],
      "name": "setAdmin",
      "outputs": [],
      "stateMutability": "nonpayable",
      "type": "function"
    },
    {
      "inputs": [
        {
          "internalType": "uint256",
          "name": "_depositFee",
          "type": "uint256"
        }
      ],
      "name": "setDepositFee",
      "outputs": [],
      "stateMutability": "nonpayable",
      "type": "function"
    },
    {
      "inputs": [
        {
          "internalType": "uint256",
          "name": "_ethTransferGasLimit",
          "type": "uint256"
        }
      ],
      "name": "setEthTransferGasLimit",
      "outputs": [],
      "stateMutability": "nonpayable",
      "type": "function"
    },
    {
      "inputs": [
        {
          "internalType": "address",
          "name": "_gov",
          "type": "address"
        }
      ],
      "name": "setGov",
      "outputs": [],
      "stateMutability": "nonpayable",
      "type": "function"
    },
    {
      "inputs": [
        {
          "internalType": "bool",
          "name": "_inLegacyMode",
          "type": "bool"
        }
      ],
      "name": "setInLegacyMode",
      "outputs": [],
      "stateMutability": "nonpayable",
      "type": "function"
    },
    {
      "inputs": [
        {
          "internalType": "uint256",
          "name": "_increasePositionBufferBps",
          "type": "uint256"
        }
      ],
      "name": "setIncreasePositionBufferBps",
      "outputs": [],
      "stateMutability": "nonpayable",
      "type": "function"
    },
    {
      "inputs": [
        {
          "internalType": "address",
          "name": "_account",
          "type": "address"
        },
        {
          "internalType": "bool",
          "name": "_isActive",
          "type": "bool"
        }
      ],
      "name": "setLiquidator",
      "outputs": [],
      "stateMutability": "nonpayable",
      "type": "function"
    },
    {
      "inputs": [
        {
          "internalType": "address[]",
          "name": "_tokens",
          "type": "address[]"
        },
        {
          "internalType": "uint256[]",
          "name": "_longSizes",
          "type": "uint256[]"
        },
        {
          "internalType": "uint256[]",
          "name": "_shortSizes",
          "type": "uint256[]"
        }
      ],
      "name": "setMaxGlobalSizes",
      "outputs": [],
      "stateMutability": "nonpayable",
      "type": "function"
    },
    {
      "inputs": [
        {
          "internalType": "address",
          "name": "_account",
          "type": "address"
        },
        {
          "internalType": "bool",
          "name": "_isActive",
          "type": "bool"
        }
      ],
      "name": "setOrderKeeper",
      "outputs": [],
      "stateMutability": "nonpayable",
      "type": "function"
    },
    {
      "inputs": [
        {
          "internalType": "address",
          "name": "_account",
          "type": "address"
        },
        {
          "internalType": "bool",
          "name": "_isActive",
          "type": "bool"
        }
      ],
      "name": "setPartner",
      "outputs": [],
      "stateMutability": "nonpayable",
      "type": "function"
    },
    {
      "inputs": [
        {
          "internalType": "address",
          "name": "_referralStorage",
          "type": "address"
        }
      ],
      "name": "setReferralStorage",
      "outputs": [],
      "stateMutability": "nonpayable",
      "type": "function"
    },
    {
      "inputs": [
        {
          "internalType": "bool",
          "name": "_shouldValidateIncreaseOrder",
          "type": "bool"
        }
      ],
      "name": "setShouldValidateIncreaseOrder",
      "outputs": [],
      "stateMutability": "nonpayable",
      "type": "function"
    },
    {
      "inputs": [],
      "name": "shortsTracker",
      "outputs": [
        {
          "internalType": "address",
          "name": "",
          "type": "address"
        }
      ],
      "stateMutability": "view",
      "type": "function"
    },
    {
      "inputs": [],
      "name": "shouldValidateIncreaseOrder",
      "outputs": [
        {
          "internalType": "bool",
          "name": "",
          "type": "bool"
        }
      ],
      "stateMutability": "view",
      "type": "function"
    },
    {
      "inputs": [],
      "name": "vault",
      "outputs": [
        {
          "internalType": "address",
          "name": "",
          "type": "address"
        }
      ],
      "stateMutability": "view",
      "type": "function"
    },
    {
      "inputs": [],
      "name": "weth",
      "outputs": [
        {
          "internalType": "address",
          "name": "",
          "type": "address"
        }
      ],
      "stateMutability": "view",
      "type": "function"
    },
    {
      "inputs": [
        {
          "internalType": "address",
          "name": "_token",
          "type": "address"
        },
        {
          "internalType": "address",
          "name": "_receiver",
          "type": "address"
        }
      ],
      "name": "withdrawFees",
      "outputs": [],
      "stateMutability": "nonpayable",
      "type": "function"
    },
    {
      "stateMutability": "payable",
      "type": "receive"
    }
  ],
  "bytecode": "0x60806040526207a1206007556064600955600e805460ff60a81b1916600160a81b17905534801561002f57600080fd5b5060405162004efd38038062004efd833981810160405260c081101561005457600080fd5b508051602082015160408301516060840151608085015160a0909501516001600081905580546001600160a01b031990811633908117909255600380546001600160a01b039889169083161790556005805496881696821696909617909555600680549387169386169390931790925560089590955560048054928516928416929092179091556002805483169091179055600e8054929093169116179055614dfa80620001036000396000f3fe6080604052600436106102055760003560e01c80626cc35e1461026157806307c7edc3146102925780631045c74e146102d557806311d9444a1461031a578063126082cf1461035d57806312d43a51146103725780631b904359146103875780631ce9cb8f146103b35780631e261538146103e657806321acf65914610421578063233bfe3b1461045c57806324a084df146104865780632d79cf42146104bf5780633039e37f146104d45780633833f5f5146105b45780633a9b52ad146105fb5780633fc8cef314610625578063430ed37c1461063a5780634453a374146106995780634584bd4b146106d4578063490ae210146106e9578063529a356f146107135780635fc8500e14610746578063657bc5d01461082657806367a527931461083b578063704b6c0214610850578063776af5ba146108835780638c0f9aac1461089857806390205d8c146108cb5780639698d25a1461092a57806398d1e03a1461095d5780639c95332f14610972578063ae4d7f9a1461099e578063b32755de146109d1578063b7ddc99214610a94578063cfad57a214610b6a578063d38ab51914610b9d578063d4ca83f914610be0578063de2ea94814610bf5578063e1f21c6714610c4a578063ef12c67e14610c8d578063f255527814610e3f578063f851a44014610e7a578063f887ea4014610e8f578063fbfa77cf14610ea45761025c565b3661025c576006546001600160a01b0316331461025a576040805162461bcd60e51b815260206004820152600e60248201526d34b73b30b634b21039b2b73232b960911b604482015290519081900360640190fd5b005b600080fd5b34801561026d57600080fd5b50610276610eb9565b604080516001600160a01b039092168252519081900360200190f35b34801561029e57600080fd5b5061025a600480360360608110156102b557600080fd5b506001600160a01b03813581169160208101359160409091013516610ec8565b3480156102e157600080fd5b50610308600480360360208110156102f857600080fd5b50356001600160a01b0316610f94565b60408051918252519081900360200190f35b34801561032657600080fd5b5061025a6004803603606081101561033d57600080fd5b506001600160a01b03813581169160208101359160409091013516610fa6565b34801561036957600080fd5b50610308611406565b34801561037e57600080fd5b5061027661140c565b34801561039357600080fd5b5061025a600480360360208110156103aa57600080fd5b5035151561141b565b3480156103bf57600080fd5b50610308600480360360208110156103d657600080fd5b50356001600160a01b03166114b9565b3480156103f257600080fd5b5061025a6004803603604081101561040957600080fd5b506001600160a01b03813516906020013515156114cb565b34801561042d57600080fd5b5061025a6004803603604081101561044457600080fd5b506001600160a01b0381351690602001351515611576565b34801561046857600080fd5b5061025a6004803603602081101561047f57600080fd5b5035611625565b34801561049257600080fd5b5061025a600480360360408110156104a957600080fd5b506001600160a01b0381351690602001356116ab565b3480156104cb57600080fd5b5061030861170f565b3480156104e057600080fd5b5061025a60048036036101008110156104f857600080fd5b810190602081018135600160201b81111561051257600080fd5b82018360208201111561052457600080fd5b803590602001918460208302840111600160201b8311171561054557600080fd5b919080806020026020016040519081016040528093929190818152602001838360200280828437600092019190915250929550505081356001600160a01b0390811693506020830135926040810135925060608101351515916080820135169060a08101359060c00135611715565b3480156105c057600080fd5b506105e7600480360360208110156105d757600080fd5b50356001600160a01b0316611910565b604080519115158252519081900360200190f35b34801561060757600080fd5b5061025a6004803603602081101561061e57600080fd5b5035611925565b34801561063157600080fd5b506102766119ab565b34801561064657600080fd5b5061025a600480360360e081101561065d57600080fd5b506001600160a01b0381358116916020810135821691604082013591606081013591608082013515159160a08101359091169060c001356119ba565b3480156106a557600080fd5b5061025a600480360360408110156106bc57600080fd5b506001600160a01b0381351690602001351515611ae3565b3480156106e057600080fd5b506105e7611b8e565b3480156106f557600080fd5b5061025a6004803603602081101561070c57600080fd5b5035611b9e565b34801561071f57600080fd5b506105e76004803603602081101561073657600080fd5b50356001600160a01b0316611c24565b34801561075257600080fd5b5061025a600480360361010081101561076a57600080fd5b810190602081018135600160201b81111561078457600080fd5b82018360208201111561079657600080fd5b803590602001918460208302840111600160201b831117156107b757600080fd5b919080806020026020016040519081016040528093929190818152602001838360200280828437600092019190915250929550505081356001600160a01b0390811693506020830135926040810135925060608101351515916080820135169060a08101359060c00135611c39565b34801561083257600080fd5b50610276611d70565b34801561084757600080fd5b50610308611d7f565b34801561085c57600080fd5b5061025a6004803603602081101561087357600080fd5b50356001600160a01b0316611d85565b34801561088f57600080fd5b50610276611e26565b3480156108a457600080fd5b506105e7600480360360208110156108bb57600080fd5b50356001600160a01b0316611e35565b3480156108d757600080fd5b5061025a600480360360e08110156108ee57600080fd5b506001600160a01b0381358116916020810135821691604082013591606081013591608082013515159160a08101359091169060c00135611e4a565b34801561093657600080fd5b506103086004803603602081101561094d57600080fd5b50356001600160a01b0316611f0a565b34801561096957600080fd5b50610308611f1c565b34801561097e57600080fd5b5061025a6004803603602081101561099557600080fd5b50351515611f22565b3480156109aa57600080fd5b5061025a600480360360208110156109c157600080fd5b50356001600160a01b0316611fc0565b61025a600480360360c08110156109e757600080fd5b810190602081018135600160201b811115610a0157600080fd5b820183602082011115610a1357600080fd5b803590602001918460208302840111600160201b83111715610a3457600080fd5b919080806020026020016040519081016040528093929190818152602001838360200280828437600092019190915250929550506001600160a01b038335169350505060208101359060408101359060608101351515906080013561205f565b348015610aa057600080fd5b5061025a600480360360e0811015610ab757600080fd5b810190602081018135600160201b811115610ad157600080fd5b820183602082011115610ae357600080fd5b803590602001918460208302840111600160201b83111715610b0457600080fd5b919080806020026020016040519081016040528093929190818152602001838360200280828437600092019190915250929550506001600160a01b0383351693505050602081013590604081013590606081013590608081013515159060a0013561227e565b348015610b7657600080fd5b5061025a60048036036020811015610b8d57600080fd5b50356001600160a01b031661255d565b348015610ba957600080fd5b5061025a60048036036060811015610bc057600080fd5b506001600160a01b038135811691602081013591604090910135166125cc565b348015610bec57600080fd5b506105e7612a2d565b348015610c0157600080fd5b5061025a600480360360a0811015610c1857600080fd5b506001600160a01b03813581169160208101358216916040820135811691606081013515159160809091013516612a3d565b348015610c5657600080fd5b5061025a60048036036060811015610c6d57600080fd5b506001600160a01b03813581169160208101359091169060400135612ee2565b348015610c9957600080fd5b5061025a60048036036060811015610cb057600080fd5b810190602081018135600160201b811115610cca57600080fd5b820183602082011115610cdc57600080fd5b803590602001918460208302840111600160201b83111715610cfd57600080fd5b9190808060200260200160405190810160405280939291908181526020018383602002808284376000920191909152509295949360208101935035915050600160201b811115610d4c57600080fd5b820183602082011115610d5e57600080fd5b803590602001918460208302840111600160201b83111715610d7f57600080fd5b9190808060200260200160405190810160405280939291908181526020018383602002808284376000920191909152509295949360208101935035915050600160201b811115610dce57600080fd5b820183602082011115610de057600080fd5b803590602001918460208302840111600160201b83111715610e0157600080fd5b919080806020026020016040519081016040528093929190818152602001838360200280828437600092019190915250929550612fb7945050505050565b348015610e4b57600080fd5b5061025a60048036036040811015610e6257600080fd5b506001600160a01b03813581169160200135166131a4565b348015610e8657600080fd5b50610276613286565b348015610e9b57600080fd5b50610276613295565b348015610eb057600080fd5b506102766132a4565b600a546001600160a01b031681565b336000908152600f602052604090205460ff16610f1a576040805162461bcd60e51b815260206004820152601a6024820152600080516020614d06833981519152604482015290519081900360640190fd5b600e54604080516307c7edc360e01b81526001600160a01b038681166004830152602482018690528481166044830152915191909216916307c7edc391606480830192600092919082900301818387803b158015610f7757600080fd5b505af1158015610f8b573d6000803e3d6000fd5b50505050505050565b600c6020526000908152604090205481565b336000908152600f602052604090205460ff16610ff8576040805162461bcd60e51b815260206004820152601a6024820152600080516020614d06833981519152604482015290519081900360640190fd5b600354604080516312d43a5160e01b815290516001600160a01b039092169160009183916312d43a5191600480820192602092909190829003018186803b15801561104257600080fd5b505afa158015611056573d6000803e3d6000fd5b505050506040513d602081101561106c57600080fd5b5051600e5460408051630130197760e11b81526001600160a01b03898116600483015260248201899052915193945060009384938493849391169163026032ee9160448082019261010092909190829003018186803b1580156110ce57600080fd5b505afa1580156110e2573d6000803e3d6000fd5b505050506040513d6101008110156110f957600080fd5b508051604082015160608301516080909301519196509450909250905060008161119b57866001600160a01b031663e124e6d2856040518263ffffffff1660e01b815260040180826001600160a01b0316815260200191505060206040518083038186803b15801561116a57600080fd5b505afa15801561117e573d6000803e3d6000fd5b505050506040513d602081101561119457600080fd5b5051611215565b866001600160a01b03166381a612d6856040518263ffffffff1660e01b815260040180826001600160a01b0316815260200191505060206040518083038186803b1580156111e857600080fd5b505afa1580156111fc573d6000803e3d6000fd5b505050506040513d602081101561121257600080fd5b50515b6004805460408051633cc8e33b60e21b81526001600160a01b038f8116948201949094528984166024820152888416604482015286151560648201526084810188905260a48101859052600060c482018190529151949550929091169263f3238cec9260e480820193929182900301818387803b15801561129557600080fd5b505af11580156112a9573d6000803e3d6000fd5b50505050856001600160a01b0316636d63c1d0886040518263ffffffff1660e01b815260040180826001600160a01b03168152602001915050600060405180830381600087803b1580156112fc57600080fd5b505af1158015611310573d6000803e3d6000fd5b5050600e54604080516308eca22560e11b81526001600160a01b038f81166004830152602482018f90528d8116604483015291519190921693506311d9444a9250606480830192600092919082900301818387803b15801561137157600080fd5b505af1158015611385573d6000803e3d6000fd5b50505050856001600160a01b031663d3c87bbb886040518263ffffffff1660e01b815260040180826001600160a01b03168152602001915050600060405180830381600087803b1580156113d857600080fd5b505af11580156113ec573d6000803e3d6000fd5b505050506113fa8a846132b3565b50505050505050505050565b61271081565b6001546001600160a01b031681565b6002546001600160a01b03163314611466576040805162461bcd60e51b81526020600482015260096024820152683337b93134b23232b760b91b604482015290519081900360640190fd5b600e8054821515600160a81b810260ff60a81b199092169190911790915560408051918252517fa956222e37fe025ff51e5440ac729a9bd417ff91e485e14dcffa2c0ba8894f409181900360200190a150565b600b6020526000908152604090205481565b6002546001600160a01b03163314611516576040805162461bcd60e51b81526020600482015260096024820152683337b93134b23232b760b91b604482015290519081900360640190fd5b6001600160a01b0382166000818152600f6020908152604091829020805460ff1916851515908117909155825190815291517f1d5bc0255b943d6a5b5279e8a55d74d620baccbceecb25e87a3558f14c4c118e9281900390910190a25050565b6002546001600160a01b031633146115c1576040805162461bcd60e51b81526020600482015260096024820152683337b93134b23232b760b91b604482015290519081900360640190fd5b6001600160a01b038216600081815260106020908152604091829020805460ff191685151590811790915582519384529083015280517fa4e46c70ff429a91de7d1716d736e877c7cca1c22ac850b23d242530dd95e4749281900390910190a15050565b6002546001600160a01b03163314611670576040805162461bcd60e51b81526020600482015260096024820152683337b93134b23232b760b91b604482015290519081900360640190fd5b60098190556040805182815290517f21167d0d4661af93817ebce920f18986eed3d75d5e1c03f2aed05efcbafbc4529181900360200190a150565b6001546001600160a01b031633146116f8576040805162461bcd60e51b81526020600482015260156024820152600080516020614c45833981519152604482015290519081900360640190fd5b61170b6001600160a01b038316826134a8565b5050565b60075481565b6002600054141561175b576040805162461bcd60e51b815260206004820152601f6024820152600080516020614c25833981519152604482015290519081900360640190fd5b600260009081553381526010602052604090205460ff16806117865750600e54600160a01b900460ff165b6117c5576040805162461bcd60e51b815260206004820152601a6024820152600080516020614d06833981519152604482015290519081900360640190fd5b87516002146118055760405162461bcd60e51b8152600401808060200182810382526025815260200180614da06025913960400191505060405180910390fd5b60065488516001600160a01b03909116908990600019810190811061182657fe5b60200260200101516001600160a01b031614611877576040805162461bcd60e51b815260206004820152601e6024820152600080516020614cc5833981519152604482015290519081900360640190fd5b600061189d338a60008151811061188a57fe5b60200260200101518a8a8a8a308a613592565b90506118e6600360009054906101000a90046001600160a01b0316828b6000815181106118c657fe5b60200260200101516001600160a01b0316613a3f9092919063ffffffff16565b60006118f38a8430613a91565b90506118ff8186613b23565b505060016000555050505050505050565b600f6020526000908152604090205460ff1681565b6002546001600160a01b03163314611970576040805162461bcd60e51b81526020600482015260096024820152683337b93134b23232b760b91b604482015290519081900360640190fd5b60078190556040805182815290517f4d371d598d3a13f99ce992a17975bbaf1e1c256e072ec7d2f93ce88e40d9ba1c9181900360200190a150565b6006546001600160a01b031681565b60026000541415611a00576040805162461bcd60e51b815260206004820152601f6024820152600080516020614c25833981519152604482015290519081900360640190fd5b600260009081553381526010602052604090205460ff1680611a2b5750600e54600160a01b900460ff165b611a6a576040805162461bcd60e51b815260206004820152601a6024820152600080516020614d06833981519152604482015290519081900360640190fd5b6006546001600160a01b03888116911614611ab65760405162461bcd60e51b8152600401808060200182810382526029815260200180614d4d6029913960400191505060405180910390fd5b6000611ac83389898989893089613592565b9050611ad48184613b23565b50506001600055505050505050565b6002546001600160a01b03163314611b2e576040805162461bcd60e51b81526020600482015260096024820152683337b93134b23232b760b91b604482015290519081900360640190fd5b6001600160a01b038216600081815260116020908152604091829020805460ff1916851515908117909155825190815291517f8c0d56805c3b43d441481229dc64bee168253ffe4305f37ab7cfe63b1c4268c69281900390910190a25050565b600e54600160a81b900460ff1681565b6002546001600160a01b03163314611be9576040805162461bcd60e51b81526020600482015260096024820152683337b93134b23232b760b91b604482015290519081900360640190fd5b60088190556040805182815290517f974fd3c1fcb4653dfc4fb740c4c692cd212d55c28f163f310128cb64d83006759181900360200190a150565b60116020526000908152604090205460ff1681565b60026000541415611c7f576040805162461bcd60e51b815260206004820152601f6024820152600080516020614c25833981519152604482015290519081900360640190fd5b600260009081553381526010602052604090205460ff1680611caa5750600e54600160a01b900460ff165b611ce9576040805162461bcd60e51b815260206004820152601a6024820152600080516020614d06833981519152604482015290519081900360640190fd5b8751600214611d295760405162461bcd60e51b8152600401808060200182810382526025815260200180614da06025913960400191505060405180910390fd5b6000611d3c338a60008151811061188a57fe5b9050611d65600360009054906101000a90046001600160a01b0316828b6000815181106118c657fe5b6118ff898386613a91565b6004546001600160a01b031681565b60085481565b6001546001600160a01b03163314611dd2576040805162461bcd60e51b81526020600482015260156024820152600080516020614c45833981519152604482015290519081900360640190fd5b600280546001600160a01b0383166001600160a01b0319909116811790915560408051918252517f5a272403b402d892977df56625f4164ccaf70ca3863991c43ecfe76a6905b0a19181900360200190a150565b600e546001600160a01b031681565b60106020526000908152604090205460ff1681565b60026000541415611e90576040805162461bcd60e51b815260206004820152601f6024820152600080516020614c25833981519152604482015290519081900360640190fd5b600260009081553381526010602052604090205460ff1680611ebb5750600e54600160a01b900460ff165b611efa576040805162461bcd60e51b815260206004820152601a6024820152600080516020614d06833981519152604482015290519081900360640190fd5b611ad43388888888888888613592565b600d6020526000908152604090205481565b60095481565b6002546001600160a01b03163314611f6d576040805162461bcd60e51b81526020600482015260096024820152683337b93134b23232b760b91b604482015290519081900360640190fd5b600e8054821515600160a01b810260ff60a01b199092169190911790915560408051918252517feac6b3611e79ff0d8ea5daa8439f6b1ab7eea4ebf95f1dd360417f712c3fc3049181900360200190a150565b6002546001600160a01b0316331461200b576040805162461bcd60e51b81526020600482015260096024820152683337b93134b23232b760b91b604482015290519081900360640190fd5b600a80546001600160a01b0383166001600160a01b0319909116811790915560408051918252517f828abcccea18192c21d645e575652c49e20b986dab777906fc473d056b01b6a89181900360200190a150565b600260005414156120a5576040805162461bcd60e51b815260206004820152601f6024820152600080516020614c25833981519152604482015290519081900360640190fd5b600260009081553381526010602052604090205460ff16806120d05750600e54600160a01b900460ff165b61210f576040805162461bcd60e51b815260206004820152601a6024820152600080516020614d06833981519152604482015290519081900360640190fd5b855160011480612120575085516002145b61215b5760405162461bcd60e51b8152600401808060200182810382526025815260200180614da06025913960400191505060405180910390fd5b60065486516001600160a01b0390911690879060009061217757fe5b60200260200101516001600160a01b0316146121c8576040805162461bcd60e51b815260206004820152601e6024820152600080516020614cc5833981519152604482015290519081900360640190fd5b341561224c576121d6613ccb565b855134906001101561220d576003546006546121ff916001600160a01b03918216911634613a3f565b61220a878630613a91565b90505b600061221d3389848a888a613d37565b9050612249600360009054906101000a90046001600160a01b0316828a60018c5103815181106118c657fe5b50505b612271338760018951038151811061226057fe5b602002602001015187868686613f2d565b5050600160005550505050565b600260005414156122c4576040805162461bcd60e51b815260206004820152601f6024820152600080516020614c25833981519152604482015290519081900360640190fd5b600260009081553381526010602052604090205460ff16806122ef5750600e54600160a01b900460ff165b61232e576040805162461bcd60e51b815260206004820152601a6024820152600080516020614d06833981519152604482015290519081900360640190fd5b86516001148061233f575086516002145b61237a5760405162461bcd60e51b8152600401808060200182810382526025815260200180614da06025913960400191505060405180910390fd5b841561252a5786516001141561243a5760055487516001600160a01b0390911690631b8278789089906000906123ac57fe5b60200260200101513330896040518563ffffffff1660e01b815260040180856001600160a01b03168152602001846001600160a01b03168152602001836001600160a01b03168152602001828152602001945050505050600060405180830381600087803b15801561241d57600080fd5b505af1158015612431573d6000803e3d6000fd5b505050506124ec565b60055487516001600160a01b0390911690631b82787890899060009061245c57fe5b6020908102919091010151600354604080516001600160e01b031960e086901b1681526001600160a01b0393841660048201523360248201529290911660448301526064820189905251608480830192600092919082900301818387803b1580156124c657600080fd5b505af11580156124da573d6000803e3d6000fd5b505050506124e9878530613a91565b94505b60006124fc3389888a8789613d37565b9050612528600360009054906101000a90046001600160a01b0316828a60018c5103815181106118c657fe5b505b61254f338860018a51038151811061253e57fe5b602002602001015188868686613f2d565b505060016000555050505050565b6001546001600160a01b031633146125aa576040805162461bcd60e51b81526020600482015260156024820152600080516020614c45833981519152604482015290519081900360640190fd5b600180546001600160a01b0319166001600160a01b0392909216919091179055565b336000908152600f602052604090205460ff1661261e576040805162461bcd60e51b815260206004820152601a6024820152600080516020614d06833981519152604482015290519081900360640190fd5b6126288383613fff565b600354604080516312d43a5160e01b815290516001600160a01b039092169160009183916312d43a5191600480820192602092909190829003018186803b15801561267257600080fd5b505afa158015612686573d6000803e3d6000fd5b505050506040513d602081101561269c57600080fd5b5051600e546040805163d3bab1d160e01b81526001600160a01b03898116600483015260248201899052915193945060009384938493849391169163d3bab1d19160448082019261012092909190829003018186803b1580156126fe57600080fd5b505afa158015612712573d6000803e3d6000fd5b505050506040513d61012081101561272957600080fd5b5060408101516060820151608083015160a090930151919650945090925090506000816127ce57866001600160a01b03166381a612d6856040518263ffffffff1660e01b815260040180826001600160a01b0316815260200191505060206040518083038186803b15801561279d57600080fd5b505afa1580156127b1573d6000803e3d6000fd5b505050506040513d60208110156127c757600080fd5b5051612848565b866001600160a01b031663e124e6d2856040518263ffffffff1660e01b815260040180826001600160a01b0316815260200191505060206040518083038186803b15801561281b57600080fd5b505afa15801561282f573d6000803e3d6000fd5b505050506040513d602081101561284557600080fd5b50515b6004805460408051633cc8e33b60e21b81526001600160a01b038f8116948201949094528984166024820152888416604482015286151560648201526084810188905260a48101859052600160c4820152905193945091169163f3238cec9160e48082019260009290919082900301818387803b1580156128c857600080fd5b505af11580156128dc573d6000803e3d6000fd5b50505050856001600160a01b0316636d63c1d0886040518263ffffffff1660e01b815260040180826001600160a01b03168152602001915050600060405180830381600087803b15801561292f57600080fd5b505af1158015612943573d6000803e3d6000fd5b5050600e546040805163d38ab51960e01b81526001600160a01b038f81166004830152602482018f90528d81166044830152915191909216935063d38ab5199250606480830192600092919082900301818387803b1580156129a457600080fd5b505af11580156129b8573d6000803e3d6000fd5b50505050856001600160a01b031663d3c87bbb886040518263ffffffff1660e01b815260040180826001600160a01b03168152602001915050600060405180830381600087803b158015612a0b57600080fd5b505af1158015612a1f573d6000803e3d6000fd5b505050506113fa8a84614322565b600e54600160a01b900460ff1681565b60026000541415612a83576040805162461bcd60e51b815260206004820152601f6024820152600080516020614c25833981519152604482015290519081900360640190fd5b600260009081553381526011602052604090205460ff16612ad9576040805162461bcd60e51b815260206004820152601a6024820152600080516020614d06833981519152604482015290519081900360640190fd5b600354604080516312d43a5160e01b815290516001600160a01b039092169160009183916312d43a5191600480820192602092909190829003018186803b158015612b2357600080fd5b505afa158015612b37573d6000803e3d6000fd5b505050506040513d6020811015612b4d57600080fd5b505160035460408051634a3f088d60e01b81526001600160a01b038b811660048301528a811660248301528981166044830152881515606483015291519394506000939190921691634a3f088d91608480830192610100929190829003018186803b158015612bbb57600080fd5b505afa158015612bcf573d6000803e3d6000fd5b505050506040513d610100811015612be657600080fd5b50519050600085612c6f57836001600160a01b031663e124e6d2886040518263ffffffff1660e01b815260040180826001600160a01b0316815260200191505060206040518083038186803b158015612c3e57600080fd5b505afa158015612c52573d6000803e3d6000fd5b505050506040513d6020811015612c6857600080fd5b5051612ce9565b836001600160a01b03166381a612d6886040518263ffffffff1660e01b815260040180826001600160a01b0316815260200191505060206040518083038186803b158015612cbc57600080fd5b505afa158015612cd0573d6000803e3d6000fd5b505050506040513d6020811015612ce657600080fd5b50515b6004805460408051633cc8e33b60e21b81526001600160a01b038e8116948201949094528c841660248201528b841660448201528a151560648201526084810187905260a48101859052600060c482018190529151949550929091169263f3238cec9260e480820193929182900301818387803b158015612d6957600080fd5b505af1158015612d7d573d6000803e3d6000fd5b50505050826001600160a01b0316636d63c1d0856040518263ffffffff1660e01b815260040180826001600160a01b03168152602001915050600060405180830381600087803b158015612dd057600080fd5b505af1158015612de4573d6000803e3d6000fd5b505060408051631bc5d52960e31b81526001600160a01b038d811660048301528c811660248301528b811660448301528a1515606483015289811660848301529151918816935063de2ea948925060a48082019260009290919082900301818387803b158015612e5357600080fd5b505af1158015612e67573d6000803e3d6000fd5b50505050826001600160a01b031663d3c87bbb856040518263ffffffff1660e01b815260040180826001600160a01b03168152602001915050600060405180830381600087803b158015612eba57600080fd5b505af1158015612ece573d6000803e3d6000fd5b505060016000555050505050505050505050565b6001546001600160a01b03163314612f2f576040805162461bcd60e51b81526020600482015260156024820152600080516020614c45833981519152604482015290519081900360640190fd5b826001600160a01b031663095ea7b383836040518363ffffffff1660e01b815260040180836001600160a01b0316815260200182815260200192505050602060405180830381600087803b158015612f8657600080fd5b505af1158015612f9a573d6000803e3d6000fd5b505050506040513d6020811015612fb057600080fd5b5050505050565b6002546001600160a01b03163314613002576040805162461bcd60e51b81526020600482015260096024820152683337b93134b23232b760b91b604482015290519081900360640190fd5b60005b835181101561309d57600084828151811061301c57fe5b6020026020010151905083828151811061303257fe5b6020026020010151600c6000836001600160a01b03166001600160a01b031681526020019081526020016000208190555082828151811061306f57fe5b6020908102919091018101516001600160a01b039092166000908152600d9091526040902055600101613005565b507fae32d569b058895b9620d6552b09aaffedc9a6f396be4d595a224ad09f8b213983838360405180806020018060200180602001848103845287818151815260200191508051906020019060200280838360005b8381101561310a5781810151838201526020016130f2565b50505050905001848103835286818151815260200191508051906020019060200280838360005b83811015613149578181015183820152602001613131565b50505050905001848103825285818151815260200191508051906020019060200280838360005b83811015613188578181015183820152602001613170565b50505050905001965050505050505060405180910390a1505050565b6002546001600160a01b031633146131ef576040805162461bcd60e51b81526020600482015260096024820152683337b93134b23232b760b91b604482015290519081900360640190fd5b6001600160a01b0382166000908152600b602052604090205480613213575061170b565b6001600160a01b0383166000818152600b6020526040812055613237908383613a3f565b604080516001600160a01b0380861682528416602082015280820183905290517f4f1b51dd7a2fcb861aa2670f668be66835c4ee12b4bbbf037e4d0018f39819e49181900360600190a1505050565b6002546001600160a01b031681565b6005546001600160a01b031681565b6003546001600160a01b031681565b600a546001600160a01b0316806132ca575061170b565b600080826001600160a01b031663534ef883866040518263ffffffff1660e01b815260040180826001600160a01b03168152602001915050604080518083038186803b15801561331957600080fd5b505afa15801561332d573d6000803e3d6000fd5b505050506040513d604081101561334357600080fd5b50805160209091015190925090508161335e5750505061170b565b600354604080516312d43a5160e01b815290516000926001600160a01b0316916312d43a51916004808301926020929190829003018186803b1580156133a357600080fd5b505afa1580156133b7573d6000803e3d6000fd5b505050506040513d60208110156133cd57600080fd5b50516040805163318bc68960e01b815290519192507f474c763ff84bf2c2039a6d9fea955ecd0f724030e3c365b91169c6a16fe751b791889188916001600160a01b0386169163318bc6899160048083019260209291908290030181600087803b15801561343a57600080fd5b505af115801561344e573d6000803e3d6000fd5b505050506040513d602081101561346457600080fd5b5051604080516001600160a01b03948516815260208101939093528281019190915260608201879052918516608082015290519081900360a00190a1505050505050565b804710156134fd576040805162461bcd60e51b815260206004820152601d60248201527f416464726573733a20696e73756666696369656e742062616c616e6365000000604482015290519081900360640190fd5b6040516000906001600160a01b0384169083908381818185875af1925050503d8060008114613548576040519150601f19603f3d011682016040523d82523d6000602084013e61354d565b606091505b505090508061358d5760405162461bcd60e51b815260040180806020018281038252603a815260200180614c65603a913960400191505060405180910390fd5b505050565b6003546000906001600160a01b0316818561362557816001600160a01b031663e124e6d28a6040518263ffffffff1660e01b815260040180826001600160a01b0316815260200191505060206040518083038186803b1580156135f457600080fd5b505afa158015613608573d6000803e3d6000fd5b505050506040513d602081101561361e57600080fd5b505161369f565b816001600160a01b03166381a612d68a6040518263ffffffff1660e01b815260040180826001600160a01b0316815260200191505060206040518083038186803b15801561367257600080fd5b505afa158015613686573d6000803e3d6000fd5b505050506040513d602081101561369c57600080fd5b50515b905085156136f557838110156136f0576040805162461bcd60e51b81526020600482015260116024820152706d61726b5072696365203c20707269636560781b604482015290519081900360640190fd5b61373e565b8381111561373e576040805162461bcd60e51b81526020600482015260116024820152706d61726b5072696365203e20707269636560781b604482015290519081900360640190fd5b6000826001600160a01b03166312d43a516040518163ffffffff1660e01b815260040160206040518083038186803b15801561377957600080fd5b505afa15801561378d573d6000803e3d6000fd5b505050506040513d60208110156137a357600080fd5b81019080805190602001909291905050509050600460009054906101000a90046001600160a01b03166001600160a01b031663f3238cec8d8d8d8b8d8860006040518863ffffffff1660e01b815260040180886001600160a01b03168152602001876001600160a01b03168152602001866001600160a01b0316815260200185151581526020018481526020018381526020018215158152602001975050505050505050600060405180830381600087803b15801561386157600080fd5b505af1158015613875573d6000803e3d6000fd5b50505050806001600160a01b0316636d63c1d0846040518263ffffffff1660e01b815260040180826001600160a01b03168152602001915050600060405180830381600087803b1580156138c857600080fd5b505af11580156138dc573d6000803e3d6000fd5b505050506000600560009054906101000a90046001600160a01b03166001600160a01b0316632662166b8e8e8e8e8e8e8e6040518863ffffffff1660e01b815260040180886001600160a01b03168152602001876001600160a01b03168152602001866001600160a01b031681526020018581526020018481526020018315158152602001826001600160a01b03168152602001975050505050505050602060405180830381600087803b15801561399357600080fd5b505af11580156139a7573d6000803e3d6000fd5b505050506040513d60208110156139bd57600080fd5b50516040805163d3c87bbb60e01b81526001600160a01b03878116600483015291519293509084169163d3c87bbb9160248082019260009290919082900301818387803b158015613a0d57600080fd5b505af1158015613a21573d6000803e3d6000fd5b50505050613a2f8d8a6132b3565b9c9b505050505050505050505050565b604080516001600160a01b038416602482015260448082018490528251808303909101815260649091019091526020810180516001600160e01b031663a9059cbb60e01b17905261358d9084906144a9565b6000835160021415613ad857613ad184600081518110613aad57fe5b602002602001015185600181518110613ac257fe5b6020026020010151858561455a565b9050613b1c565b6040805162461bcd60e51b81526020600482015260146024820152730d2dcecc2d8d2c840bee0c2e8d05cd8cadccee8d60631b604482015290519081900360640190fd5b9392505050565b60065460408051632e1a7d4d60e01b81526004810185905290516001600160a01b03909216918291632e1a7d4d91602480830192600092919082900301818387803b158015613b7157600080fd5b505af1158015613b85573d6000803e3d6000fd5b5050600754604051600093506001600160a01b0386169250869084818181858888f193505050503d8060008114613bd8576040519150601f19603f3d011682016040523d82523d6000602084013e613bdd565b606091505b505090508015613bee57505061170b565b816001600160a01b031663d0e30db0856040518263ffffffff1660e01b81526004016000604051808303818588803b158015613c2957600080fd5b505af1158015613c3d573d6000803e3d6000fd5b5050505050816001600160a01b031663a9059cbb84866040518363ffffffff1660e01b815260040180836001600160a01b0316815260200182815260200192505050602060405180830381600087803b158015613c9957600080fd5b505af1158015613cad573d6000803e3d6000fd5b505050506040513d6020811015613cc357600080fd5b505050505050565b3415613d3557600660009054906101000a90046001600160a01b03166001600160a01b031663d0e30db0346040518263ffffffff1660e01b81526004016000604051808303818588803b158015613d2157600080fd5b505af1158015612fb0573d6000803e3d6000fd5b565b60008073__$4ebf70e2aa99c076c4a72b3e77f175d419$__63e0cab550600360009054906101000a90046001600160a01b03168a8a8a8a8a8a6009546040518963ffffffff1660e01b815260040180896001600160a01b03168152602001886001600160a01b0316815260200180602001878152602001866001600160a01b031681526020018515158152602001848152602001838152602001828103825288818151815260200191508051906020019060200280838360005b83811015613e09578181015183820152602001613df1565b50505050905001995050505050505050505060206040518083038186803b158015613e3357600080fd5b505af4158015613e47573d6000803e3d6000fd5b505050506040513d6020811015613e5d57600080fd5b505190508015613f1e576000613e96612710613e90613e8960085461271061463f90919063ffffffff16565b8a9061468a565b906146e3565b90506000613ea4888361463f565b905060008960018b510381518110613eb857fe5b60200260200101519050613efa82600b6000846001600160a01b03166001600160a01b031681526020019081526020016000205461472290919063ffffffff16565b6001600160a01b039091166000908152600b6020526040902055509150613f239050565b859150505b9695505050505050565b613f3884838561477a565b60035460055460048054604080516317c3cf0f60e31b81526001600160a01b03958616938101939093529284166024830152831660448201528883166064820152878316608482015291861660a483015260c4820185905283151560e483015261010482018390525173__$4ebf70e2aa99c076c4a72b3e77f175d419$__9163be1e787891610124808301926000929190829003018186803b158015613fdd57600080fd5b505af4158015613ff1573d6000803e3d6000fd5b50505050613cc38684614322565b600e546040805163d3bab1d160e01b81526001600160a01b03858116600483015260248201859052915160009384938493849384938493169163d3bab1d191604480830192610120929190829003018186803b15801561405e57600080fd5b505afa158015614072573d6000803e3d6000fd5b505050506040513d61012081101561408957600080fd5b508051602082015160408301516060840151608085015160a090950151939a509198509650945090925090506140c083828461477a565b600e54600160a81b900460ff166140dc5750505050505061170b565b806140ec5750505050505061170b565b60008211614141576040805162461bcd60e51b815260206004820152601d60248201527f506f736974696f6e4d616e616765723a206c6f6e67206465706f736974000000604482015290519081900360640190fd5b60035460408051634a3f088d60e01b81526001600160a01b038b811660048301528781166024830152868116604483015284151560648301529151919092169160009182918491634a3f088d9160848082019261010092909190829003018186803b1580156141af57600080fd5b505afa1580156141c3573d6000803e3d6000fd5b505050506040513d6101008110156141da57600080fd5b5080516020909101519092509050816141fb5750505050505050505061170b565b60006142078387614722565b90506000846001600160a01b0316630a48d5a98c8c6040518363ffffffff1660e01b815260040180836001600160a01b031681526020018281526020019250505060206040518083038186803b15801561426057600080fd5b505afa158015614274573d6000803e3d6000fd5b505050506040513d602081101561428a57600080fd5b50519050600061429a8483614722565b905060006142ae85613e908861271061468a565b905060006142cf83613e90600954612710018861468a90919063ffffffff16565b9050818110156143105760405162461bcd60e51b8152600401808060200182810382526027815260200180614d266027913960400191505060405180910390fd5b50505050505050505050505050505050565b600a546001600160a01b031680614339575061170b565b600080826001600160a01b031663534ef883866040518263ffffffff1660e01b815260040180826001600160a01b03168152602001915050604080518083038186803b15801561438857600080fd5b505afa15801561439c573d6000803e3d6000fd5b505050506040513d60408110156143b257600080fd5b5080516020909101519092509050816143cd5750505061170b565b600354604080516312d43a5160e01b815290516000926001600160a01b0316916312d43a51916004808301926020929190829003018186803b15801561441257600080fd5b505afa158015614426573d6000803e3d6000fd5b505050506040513d602081101561443c57600080fd5b50516040805163318bc68960e01b815290519192507fc2414023ce7002ee98557d1e7be21e5559073336f2217ee5f9b2e50fd85f71ee91889188916001600160a01b0386169163318bc6899160048083019260209291908290030181600087803b15801561343a57600080fd5b60606144fe826040518060400160405280602081526020017f5361666545524332303a206c6f772d6c6576656c2063616c6c206661696c6564815250856001600160a01b03166149499092919063ffffffff16565b80519091501561358d5780806020019051602081101561451d57600080fd5b505161358d5760405162461bcd60e51b815260040180806020018281038252602a815260200180614d76602a913960400191505060405180910390fd5b60035460408051634998b10960e11b81526001600160a01b03878116600483015286811660248301528481166044830152915160009384931691639331621291606480830192602092919082900301818787803b1580156145ba57600080fd5b505af11580156145ce573d6000803e3d6000fd5b505050506040513d60208110156145e457600080fd5b5051905083811015614636576040805162461bcd60e51b81526020600482015260166024820152751a5b9cdd59999a58da595b9d08185b5bdd5b9d13dd5d60521b604482015290519081900360640190fd5b95945050505050565b600061468183836040518060400160405280601e81526020017f536166654d6174683a207375627472616374696f6e206f766572666c6f770000815250614960565b90505b92915050565b60008261469957506000614684565b828202828482816146a657fe5b04146146815760405162461bcd60e51b8152600401808060200182810382526021815260200180614ce56021913960400191505060405180910390fd5b600061468183836040518060400160405280601a815260200179536166654d6174683a206469766973696f6e206279207a65726f60301b8152506149f7565b600082820183811015614681576040805162461bcd60e51b815260206004820152601b60248201527a536166654d6174683a206164646974696f6e206f766572666c6f7760281b604482015290519081900360640190fd5b806147845761358d565b8115614882576001600160a01b0383166000908152600c6020526040902054801580159061483557506003546040805163783a2b6760e11b81526001600160a01b0387811660048301529151849361483393879391169163f07456ce91602480820192602092909190829003018186803b15801561480157600080fd5b505afa158015614815573d6000803e3d6000fd5b505050506040513d602081101561482b57600080fd5b505190614722565b115b1561487c576040805162461bcd60e51b81526020600482015260126024820152711b585e081b1bdb99dcc8195e18d95959195960721b604482015290519081900360640190fd5b5061358d565b6001600160a01b0383166000908152600d602052604090205480158015906148fb57506003546040805163114f1b5560e31b81526001600160a01b038781166004830152915184936148f9938793911691638a78daa891602480820192602092909190829003018186803b15801561480157600080fd5b115b15614943576040805162461bcd60e51b81526020600482015260136024820152721b585e081cda1bdc9d1cc8195e18d959591959606a1b604482015290519081900360640190fd5b50505050565b60606149588484600085614a5c565b949350505050565b600081848411156149ef5760405162461bcd60e51b81526004018080602001828103825283818151815260200191508051906020019080838360005b838110156149b457818101518382015260200161499c565b50505050905090810190601f1680156149e15780820380516001836020036101000a031916815260200191505b509250505060405180910390fd5b505050900390565b60008183614a465760405162461bcd60e51b81526020600482018181528351602484015283519092839260449091019190850190808383600083156149b457818101518382015260200161499c565b506000838581614a5257fe5b0495945050505050565b606082471015614a9d5760405162461bcd60e51b8152600401808060200182810382526026815260200180614c9f6026913960400191505060405180910390fd5b614aa685614bb8565b614af7576040805162461bcd60e51b815260206004820152601d60248201527f416464726573733a2063616c6c20746f206e6f6e2d636f6e7472616374000000604482015290519081900360640190fd5b60006060866001600160a01b031685876040518082805190602001908083835b60208310614b365780518252601f199092019160209182019101614b17565b6001836020036101000a03801982511681845116808217855250505050505090500191505060006040518083038185875af1925050503d8060008114614b98576040519150601f19603f3d011682016040523d82523d6000602084013e614b9d565b606091505b5091509150614bad828286614bbe565b979650505050505050565b3b151590565b60608315614bcd575081613b1c565b825115614bdd5782518084602001fd5b60405162461bcd60e51b81526020600482018181528451602484015284518593919283926044019190850190808383600083156149b457818101518382015260200161499c56fe5265656e7472616e637947756172643a207265656e7472616e742063616c6c00476f7665726e61626c653a20666f7262696464656e0000000000000000000000416464726573733a20756e61626c6520746f2073656e642076616c75652c20726563697069656e74206d61792068617665207265766572746564416464726573733a20696e73756666696369656e742062616c616e636520666f722063616c6c506f736974696f6e4d616e616765723a20696e76616c6964205f706174680000536166654d6174683a206d756c7469706c69636174696f6e206f766572666c6f77506f736974696f6e4d616e616765723a20666f7262696464656e000000000000506f736974696f6e4d616e616765723a206c6f6e67206c65766572616765206465637265617365506f736974696f6e4d616e616765723a20696e76616c6964205f636f6c6c61746572616c546f6b656e5361666545524332303a204552433230206f7065726174696f6e20646964206e6f742073756363656564506f736974696f6e4d616e616765723a20696e76616c6964205f706174682e6c656e677468a2646970667358221220a67fc03704a2bb2e62213c9e1831deea2ca182c8caf098305ee706140e30159e64736f6c634300060c0033",
  "linkReferences": {
    "contracts/core/PositionUtils.sol": {
      "PositionUtils": [
        {
          "length": 20,
          "start": 15935
        },
        {
          "length": 20,
          "start": 16550
        }
      ]
    }
  },
  "deployedLinkReferences": {
    "contracts/core/PositionUtils.sol": {
      "PositionUtils": [
        {
          "length": 20,
          "start": 15676
        },
        {
          "length": 20,
          "start": 16291
        }
      ]
    }
  }
}